:020000040800F2
:1000000000500020490C0008D50C0008E10C000845
:10001000ED0C0008F90C0008050D000800000000B8
:10002000000000000000000000000000110D0008AA
:100030001D0D000800000000290D0008350D000806
:10004000410D00084D0D0008590D0008650D000810
:10005000710D00087D0D0008890D0008950D000840
:10006000A10D0008AD0D0008B90D0008C50D000870
:10007000D10D0008DD0D0008E90D0008F50D0008A0
:10008000010E00080D0E0008190E0008250E0008CC
:10009000310E00083D0E0008490E0008550E0008FC
:1000A000610E00086D0E0008790E0008850E00082C
:1000B000910E00089D0E0008A90E0008B50E00085C
:1000C000C10E0008CD0E0008D90E0008E50E00088C
:1000D000F10E0008FD0E0008090F0008150F0008BA
:1000E000210F00082D0F0008390F00080000000044
:1000F0000000000000000000000000000000000000
:0C0100000000000000000000450F000897
:10010C0080B584B000AF78607B681B79FB737B682B
:10011C005B79BB73FB7B0F2B0DD87B681B68BA7BA1
:10012C00F97B184600F00BF87B689B7919467868C8
:10013C0000F04AF800E000BF1037BD4680BD80B427
:10014C0083B000AF78600B46FB701346BB70FB7836
:10015C000F2B34D8FB78072B15D87B681B68FA78E3
:10016C0092000F2101FA02F2D2431A407B681A6006
:10017C007B681B68B978FA78920001FA02F21A438C
:10018C007B681A601CE0FB780F2B19D8FB78083BB6
:10019C00FB707B685B68FA7892000F2101FA02F21F
:1001AC00D2431A407B685A607B685B68B978FA78EE
:1001BC00920001FA02F21A437B685A6000E000BF19
:1001CC000C37BD4680BC704780B483B000AF7860FC
:1001DC000B46FB707B681B790F2B16D8FB78012B19
:1001EC0009D17B681B791A46012303FA02F27B685A
:1001FC001B681A610AE07B681B791A46012303FA13
:10020C0002F27B681B685A6100E000BF0C37BD46E8
:10021C0080BC704780B483B000AF78607B681B797A
:10022C000F2B01D9002309E07B681B689B687A6857
:10023C001279D340DBB203F00103DBB218460C3762
:10024C00BD4680BC7047000080B584B000AF7860BC
:10025C000023FB737B68002B67D07B6802225A71EA
:10026C007B6802225A737B6802225A757B680022D3
:10027C009A717B6800229A737B6800229A757B685E
:10028C001846FFF73DFF7B6808331846FFF738FF29
:10029C007B6810331846FFF733FF0023FB7318E01D
:1002AC00FB7B7A680333DB00134402225A71FB7B1D
:1002BC007A680333DB00134400229A71FB7B03330F
:1002CC00DB007A6813441846FFF71AFFFB7B0133F7
:1002DC00FB73FB7B032BE3D90023BB6003E000BF64
:1002EC00BB680133BB60BB6842F6F7229342F6D978
:1002FC003321786800F01DF83221786800F019F885
:10030C002821786800F015F80C21786800F011F8B5
:10031C000621786800F00DF88021786800F009F863
:10032C000121786800F005F800E000BF1037BD46E9
:10033C0080BD80B582B000AF78600B46FB707B68E7
:10034C00002B1DD07B6800211846FFF73DFF7B6812
:10035C00083300211846FFF737FFFB781B09DBB287
:10036C001946786800F032F9786800F06BF9FB7880
:10037C001946786800F02AF9786800F063F900E013
:10038C0000BF0837BD4680BD80B586B000AFF860B1
:10039C00B96011461A460B46FB711346BB7100231C
:1003AC00FB75FB68002B22D097F820300833DBB2AA
:1003BC00DB00DBB21946F868FFF7BBFF0023FB75C7
:1003CC000AE0FB7DBA6813441B781946F86800F004
:1003DC0012F8FB7D0133FB75FB7D072BF1D997F8E8
:1003EC002030BA79F979F86800F030F800E000BFF5
:1003FC001837BD4680BD80B582B000AF78600B4623
:10040C00FB707B68002B1DD07B6801211846FFF721
:10041C00DBFE7B68083300211846FFF7D5FEFB781E
:10042C001B09DBB21946786800F0D0F8786800F048
:10043C0009F9FB781946786800F0C8F8786800F07C
:10044C0001F900E000BF0837BD4680BD80B582B021
:10045C0000AF7860084611461A460346FB700B46FF
:10046C00BB7013467B707B68002B0BD0BA78FB7883
:10047C001946786800F00EF97B7819467868FFF712
:10048C00BAFF00E000BF0837BD4680BD80B582B022
:10049C0000AF786039607B68002B0DD007E03B68BB
:1004AC005A1C3A601B7819467868FFF7A4FF3B6822
:1004BC001B78002BF3D100E000BF0837BD4680BD90
:1004CC0080B584B000AFF8607B600B46FB721346BE
:1004DC00BB72FB68002B13D0BA7AFB7A1946F8680A
:1004EC0000F0D8F807E07B685A1C7A601B78194634
:1004FC00F868FFF780FF7B681B78002BF3D100E0D6
:10050C0000BF1037BD4680BD80B582B000AF7860AB
:10051C0001217868FFF70DFF00BF0837BD4680BD8D
:10052C0080B586B000AF78600B46FB701346BB708D
:10053C00BB78013BBB700023FB757B68002B22D181
:10054C00BA78F97830231F48FFF780FF36E07968D6
:10055C001D4BA3FB0123DA0813469B0013445B00DD
:10056C00CA1AD2B2FB7D3032D2B207F118010B4459
:10057C0003F80C2C7B68144AA2FB0323DB087B607A
:10058C00FB7D0133FB757B68002BE0D1FB7DBB75DC
:10059C0011E0BB780133BB70BB7D013B07F1180246
:1005AC00134413F80C3CBA78F9780648FFF74EFF61
:1005BC00BB7D013BBB75BB7D002BEAD100BF18375F
:1005CC00BD4680BD00000020CDCCCCCC80B582B027
:1005DC0000AF78600B46FB707B6803F11802FB7868
:1005EC0003F00103DBB219461046FFF7EDFD7B6803
:1005FC0003F12002FB785B08DBB203F00103DBB2F2
:10060C0019461046FFF7E0FD7B6803F12802FB78E2
:10061C009B08DBB203F00103DBB219461046FFF76F
:10062C00D3FD7B6803F13002FB78DB08DBB203F00F
:10063C000103DBB219461046FFF7C6FD00BF0837B1
:10064C00BD4680BD80B584B000AF78607B68103348
:10065C0001211846FFF7B8FD0023FB7302E0FB7B7A
:10066C000133FB73FB7B092BF9D97B681033002119
:10067C001846FFF7A9FD0023BB8102E0BB890133BB
:10068C00BB81BB89B3F5FA6FF8D300BF00BF10373D
:10069C00BD4680BD80B582B000AF78600B46FB7064
:1006AC001346BB70BB78013BBB70FB78013B032B43
:1006BC002AD801A252F823F0D5060008E506000856
:1006CC00F506000805070008BB78803BDBB219462D
:1006DC007868FFF72EFE17E0BB78403BDBB219467B
:1006EC007868FFF726FE0FE0BB786C3BDBB219464F
:1006FC007868FFF71EFE07E0BB782C3BDBB219468F
:10070C007868FFF716FE00BF00BF0837BD4680BDF6
:10071C0080B584B002AF444800F096F80221022064
:10072C0000F0B4F80321022000F0B0F83F48FFF7C6
:10073C008BFD3F4B022201213C48FFF7C1FE0323F6
:10074C000093012302223B493848FFF71DFE022388
:10075C00FB710AE0FB7901220092022236493348F0
:10076C00FFF712FEFB790133FB71FB790F2BF1D9EB
:10077C00022300931023022230492C48FFF704FE79
:10078C000123BB7116E0BB790422009202222C4992
:10079C002648FFF7F9FD0023BB8003E000BFBB88B0
:1007AC000133BB80BB8849F63F429342F6D9BB79F3
:1007BC000133BB71BB790F2BE5D9052300931023B3
:1007CC00022220491948FFF7DFFD03230093012380
:1007DC00022218491548FFF7D7FD0223FB7016E0DB
:1007EC00FB7801220092022213491048FFF7CCFD3E
:1007FC0000233B8003E000BF3B8801333B803B88F8
:10080C0049F63F429342F6D9FB780133FB70FB78F3
:10081C000F2BE5D90223009310230222074903482A
:10082C00FFF7B2FDACE700BF38000020000000204D
:10083C00840F00086C0F00085C0F0008640F0008A0
:10084C00740F00087C0F000880B582B000AF786090
:10085C007B68002B16D07B681B78184600F090F84C
:10086C007B681B78022B09D17B685B78184600F0FB
:10087C001BF97B689B78184600F0A2F9786800F0A9
:10088C00B3F900E000BF0837BD4680BD80B483B02B
:10089C0000AF03460A46FB711346BB71FB79022B72
:1008AC001CD0022B25DC002B02D0012B0BD020E01E
:1008BC00134B5B69BA79012101FA02F21146104A15
:1008CC000B43536116E00E4BDB69BA79012101FA37
:1008DC0002F211460A4A0B43D3610BE0084B9B69A9
:1008EC00BA79012101FA02F21146054A0B439361D0
:1008FC0000E000BF00BF0C37BD4680BC704700BF96
:10090C000010024080B483B000AF03460A46FB716E
:10091C001346BB71FB79022B1ED0022B28DC002B5B
:10092C0002D0012B0CD023E0144B5B69BA79012166
:10093C0001FA02F2D2431146104A0B40536118E0FF
:10094C000E4BDB69BA79012101FA02F2D24311464E
:10095C000A4A0B40D3610CE0084B9B69BA79012120
:10096C0001FA02F2D2431146044A0B40936100E0B3
:10097C0000BF00BF0C37BD4680BC70470010024062
:10098C0080B483B000AF0346FB71464B5B68454AAD
:10099C0023F001035360434B5B68424A23F002038C
:1009AC005360FB79022B42D0022B5BDC002B02D074
:1009BC00012B1BD056E03B4B1B683A4A43F001031A
:1009CC00136000BF374B1B685B0803F00103002B5F
:1009DC00F8D0344B5B68334A23F001035360314B3E
:1009EC005B68304A23F00203536056E02D4B1B68C2
:1009FC002C4A43F4803313602A4B1B68294A23F496
:100A0C008023136000BF274B1B685B0C03F00103B2
:100A1C00002BF8D0234B5B68224A43F00103536050
:100A2C00204B5B681F4A23F00203536035E01D4BDB
:100A3C001B681C4A43F08073136000BF194B1B6882
:100A4C005B0E03F00103002BF8D0164B5B68154AC4
:100A5C0023F001035360134B5B68124A43F002030B
:100A6C0053601AE00F4B1B680E4A43F001031360EE
:100A7C0000BF0C4B1B685B0803F00103002BF8D084
:100A8C00084B5B68074A23F001035360054B5B6816
:100A9C00044A23F00203536000BF00BF0C37BD466D
:100AAC0080BC70470010024080B483B000AF034696
:100ABC00FB71424B5B68414A23F4003353603F4B5C
:100ACC005B683E4A23F480335360FB79022B4CD095
:100ADC00022B5FDC002B02D0012B23D05AE0374BCA
:100AEC001B68364A43F48033136000BF334B1B68DA
:100AFC005B0C03F00103002BF8D0304B5B682F4AE2
:100B0C0023F4003353602D4B5B682C4A43F4803341
:100B1C00536000BF294B1B685B0C03F00103002BD7
:100B2C00F8D046E0254B1B68244A43F4803313600D
:100B3C0000BF224B1B685B0C03F00103002BF8D0A9
:100B4C001E4B5B681D4A43F4003353601B4B5B68C0
:100B5C001A4A43F48033536000BF184B1B685B0C7C
:100B6C0003F00103002BF8D023E0144B1B68134A4D
:100B7C0043F00103136000BF104B1B685B0803F0CC
:100B8C000103002BF8D00D4B5B680C4A23F4803327
:100B9C0053600EE0094B1B68084A43F001031360D5
:100BAC0000BF064B1B685B0803F00103002BF8D059
:100BBC0000BF00BF0C37BD4680BC70470010024020
:100BCC0080B483B000AF0346FB71064B5B68FA79C7
:100BDC0092041146034A0B43536000BF0C37BD46C9
:100BEC0080BC70470010024080B483B000AF7860C6
:100BFC007B68002B1BD0104B5B687A68D278120193
:100C0C0011460D4A0B4353600B4B5B687A681279A3
:100C1C0012021146084A0B435360074B5B687A6813
:100C2C005279D2021146044A0B43536000E000BFD4
:100C3C000C37BD4680BC70470010024080B586B0B2
:100C4C0000AF00237B601B4B7B611B4B3B611B4A42
:100C5C00194BD31A9B107B600023FB600AE07A6966
:100C6C00131D7B613B69191D396112681A60FB68A1
:100C7C000133FB60FA687B689A42F0D3104A114B3F
:100C8C00D31A9B107B600F4B3B610023BB6007E0CA
:100C9C003B691A1D3A6100221A60BB680133BB60C4
:100CAC00BA687B689A42F3D3FFF732FD00BF18375E
:100CBC00BD4680BD980F00080000002040000020B9
:100CCC00400000204000002080B400AF00BFBD46B3
:100CDC0080BC704780B400AF00BFBD4680BC70477D
:100CEC0080B400AF00BFBD4680BC704780B400AF7D
:100CFC0000BFBD4680BC704780B400AF00BFBD468E
:100D0C0080BC704780B400AF00BFBD4680BC70474C
:100D1C0080B400AF00BFBD4680BC704780B400AF4C
:100D2C0000BFBD4680BC704780B400AF00BFBD465D
:100D3C0080BC704780B400AF00BFBD4680BC70471C
:100D4C0080B400AF00BFBD4680BC704780B400AF1C
:100D5C0000BFBD4680BC704780B400AF00BFBD462D
:100D6C0080BC704780B400AF00BFBD4680BC7047EC
:100D7C0080B400AF00BFBD4680BC704780B400AFEC
:100D8C0000BFBD4680BC704780B400AF00BFBD46FD
:100D9C0080BC704780B400AF00BFBD4680BC7047BC
:100DAC0080B400AF00BFBD4680BC704780B400AFBC
:100DBC0000BFBD4680BC704780B400AF00BFBD46CD
:100DCC0080BC704780B400AF00BFBD4680BC70478C
:100DDC0080B400AF00BFBD4680BC704780B400AF8C
:100DEC0000BFBD4680BC704780B400AF00BFBD469D
:100DFC0080BC704780B400AF00BFBD4680BC70475C
:100E0C0080B400AF00BFBD4680BC704780B400AF5B
:100E1C0000BFBD4680BC704780B400AF00BFBD466C
:100E2C0080BC704780B400AF00BFBD4680BC70472B
:100E3C0080B400AF00BFBD4680BC704780B400AF2B
:100E4C0000BFBD4680BC704780B400AF00BFBD463C
:100E5C0080BC704780B400AF00BFBD4680BC7047FB
:100E6C0080B400AF00BFBD4680BC704780B400AFFB
:100E7C0000BFBD4680BC704780B400AF00BFBD460C
:100E8C0080BC704780B400AF00BFBD4680BC7047CB
:100E9C0080B400AF00BFBD4680BC704780B400AFCB
:100EAC0000BFBD4680BC704780B400AF00BFBD46DC
:100EBC0080BC704780B400AF00BFBD4680BC70479B
:100ECC0080B400AF00BFBD4680BC704780B400AF9B
:100EDC0000BFBD4680BC704780B400AF00BFBD46AC
:100EEC0080BC704780B400AF00BFBD4680BC70476B
:100EFC0080B400AF00BFBD4680BC704780B400AF6B
:100F0C0000BFBD4680BC704780B400AF00BFBD467B
:100F1C0080BC704780B400AF00BFBD4680BC70473A
:100F2C0080B400AF00BFBD4680BC704780B400AF3A
:100F3C0000BFBD4680BC704780B400AF00BFBD464B
:100F4C0080BC704780B400AF00BFBD4680BC70470A
:100F5C001F0000000000001F180701010101071805
:100F6C001F1010101010101F1F1F1F1F1F1F1F1FDF
:100F7C00181F1F1F1F1F1F184865792048617070AC
:0C0F8C00656E696E6700000000500020D8
:100F980000080140040000000008014005000000AE
:100FA80000080140060000000008014000000000A1
:100FB8000008014001000000000801400200000094
:100FC80000080140030000000100000000000000CC
:040000050800010CE2
:00000001FF
